:020000040000FA
:020000000B28CB
:10000800DE00030E8312A0000A08A100B2280C2803
:100018008312AA01AB01AC018301942883121F1437
:100028008530A200A20B162883129F149F181D2842
:100038001E281A281E08A200A3012208AB002308C4
:10004800AC002C08A3002B08A2000530DF00031029
:10005800A20DA30DDF0B2B280030A4002030A50033
:1000680022082402A8002308031C230A2502A90049
:100078000310051D0314003003180130A200A3016A
:100088000310AA180314003003180130A400A501B6
:1000980022082405A60023082505A700260827040A
:1000A80003195728582871282908A3002808A200EE
:1000B800A209A30922088E0023088F000C1010142F
:1000C8000C1C67286828642810100C10CF30850095
:1000D8004230A200A20B6E280000FF308312850078
:1000E80008000B138B13143083129900A530831664
:1000F8009900FF3083128500CF3083168500FF30CA
:10010800831285008316960195015530810083126C
:1001180090010C10013083169F0083129F01080084
:10012800FF23831690007520C6200B178B178312A8
:10013800191F9F28A0289B280B118B12653081005E
:100148000B118B162A14122083122A18AC28AD28FA
:10015800A82812208312AA149B280B288B1EB528C6
:10016800B628BF280B1DB928BA28BF280B118B1237
:10017800653081002A1021088A00200E8300DE0ED7
:100188005E0E09008312AA102A100030A800203041
:04019800A9000800B2
:02400E00E4319B
:00000001FF
